:020000040800F2
:10000000D80A0020CD01000819090008BF03000824
:10001000DD07000883020008410F0008000000000F
:10002000000000000000000000000000F10D0008CA
:100030008702000800000000CF0D0008DD0E000858
:10004000E7010008E7010008E7010008E7010008F0
:10005000E7010008E7010008E7010008E7010008E0
:10006000E7010008E7010008E7010008E7010008D0
:10007000E7010008E7010008E7010008E7010008C0
:10008000E7010008E7010008E7010008E7010008B0
:10009000E7010008E7010008E7010008E7010008A0
:1000A000E7010008E7010008E7010008E701000890
:1000B000E7010008E7010008E7010008E701000880
:1000C000E7010008E7010008E7010008E701000870
:1000D000E7010008E7010008E7010008E701000860
:1000E000E7010008E7010008E7010008E701000850
:1000F000E7010008E7010008E7010008E701000840
:10010000E7010008E7010008E7010008E70100082F
:10011000E7010008E7010008E7010008E70100081F
:10012000E7010008E7010008E7010008E70100080F
:1001300000F002F800F03AF80AA090E8000C8244BF
:100140008344AAF10107DA4501D100F02FF8AFF29C
:10015000090EBAE80F0013F0010F18BFFB1A43F0A5
:1001600001031847CC240000EC240000103A24BFFF
:1001700078C878C1FAD8520724BF30C830C144BF0C
:1001800004680C607047000000230024002500264E
:10019000103A28BF78C1FBD8520728BF30C148BFEA
:1001A0000B6070471FB51FBD10B510BD00F036F8CD
:1001B0001146FFF7F7FF01F00DF800F054F803B413
:1001C000FFF7F2FF03BC00F055F800000948804734
:1001D00009480047FEE7FEE7FEE7FEE7FEE7FEE729
:1001E000FEE7FEE7FEE7FEE704480549054A064B41
:1001F00070470000E10E000831010008D80400201B
:10020000D80A0020D8060020D80600207047704782
:100210007047000000487047740400207546FFF7DF
:10022000F9FFAE4605006946534620F007008546B3
:1002300018B020B5FFF7D8FFBDE820404FF000060A
:100240004FF000074FF000084FF0000B21F00701BE
:10025000AC46ACE8C009ACE8C009ACE8C009ACE801
:10026000C0098D4670470446AFF300802046FFF773
:10027000A6FF000001491820ABBEFEE726000200E1
:10028000704700BFFEE770472DE9F04102460025A8
:100290000026002000230024002791F803C00CF062
:1002A0000F0591F803C00CF0100CBCF1000F03D047
:1002B00091F802C04CEA050591F800C0BCF1000FAE
:1002C00031D0146800202BE04FF0010C0CFA00F341
:1002D000B1F800C00CEA03069E4220D183004FF023
:1002E0000F0C0CFA03F7BC4305FA03FC4CEA0404B8
:1002F00091F803C0BCF1280F06D14FF0010C0CFAA5
:1003000000FCC2F814C00AE091F803C0BCF1480F29
:1003100005D14FF0010C0CFA00FCC2F810C0401CD3
:100320000828D1D31460B1F800C0BCF1FF0F34DD50
:10033000546800202EE000F1080C4FF0010808FA84
:100340000CF3B1F800C00CEA03069E4221D18300F1
:100350004FF00F0C0CFA03F7BC4305FA03FC4CEA10
:10036000040491F803C0BCF1280F05D100F1080C7A
:1003700008FA0CF8C2F8148091F803C0BCF1480FD9
:1003800007D100F1080C4FF0010808FA0CF8C2F888
:100390001080401C0828CED35460BDE8F08102468E
:1003A000002093680B400BB1012000E00020704753
:1003B000016170470AB1016100E04161704700BF0F
:1003C000FEE7000007490160074941600749816075
:1003D0000021C160016181610022C261026242624A
:1003E000704700006F12833AA69B443B8FC2F53CD6
:1003F0002DE9F04F87B004460E4617461D46384695
:10040000216901F069FB60612846616901F08EFA9B
:100410008246E16801F02CF9E0602846616A01F04B
:1004200085FA0090E16901F057FB0190216A01F023
:1004300053FB8346216801F01BF92946029001F025
:1004400075FA8246A16901F013F9A0612846616A34
:1004500001F06CFA8246E16901F034FBE061284664
:10046000616A01F063FA8246216A01F02BFB206287
:100470002946606801F05AFA8246616A01F0F8F88C
:100480006062A168A06901F0F3F80690A06906997E
:1004900001F056F90490206A069901F051F905908F
:1004A0003046E16801F018FB0390DDE9031001F02C
:1004B0003DFA8246E16801F0DBF8E06003990598B7
:1004C00001F034FA8246216901F0D2F82061D4F8B3
:1004D0001880D4F81C904146049801F027FA82460F
:1004E000A16901F0EFFAA0614946049801F01EFAF3
:1004F0008246E16901F0E6FAE0614146059801F0C3
:1005000015FA8246216A01F0DDFA20624946059813
:1005100001F00CFA8246616A01F0D4FA6062E06888
:1005200007B0BDE8F08F00002DE9FC5F3E483F4971
:100530003F4B404ACDE900103F49404800F0A6F843
:100540003B48B0F9000000F0FBFF064600223C4BA0
:1005500000F09EFE044600F069FE3A490860334808
:10056000B0F9000000F0ECFF06460022344B00F02A
:100570008FFE044600F05AFE334908602D48B0F95A
:10058000000001F0BBF982462B48B0F9000001F0F1
:10059000B5F98346514600F0EFFC81462B4901F046
:1005A000C5F9044601F038F80746294A294B00F0FE
:1005B0006FFE054600F03AFE274908601D48B0F975
:1005C000000001F09BF982461C48B0F9000001F0E0
:1005D00095F98346514600F0CFFC81461B4901F056
:1005E000A5F9044601F018F80746194A194B00F01E
:1005F0004FFE054600F01AFE18490860184B1248D5
:100600000268154801681748FFF7F2FE16490860AE
:10061000134B0C480268114801681448FFF7E8FEC4
:1006200013490860BDE8FC9F0A0000200800002074
:10063000060000200400002002000020000000202E
:10064000006060400C0000201000002000003443D7
:10065000182D4454FB2109401400002018000020EC
:100660000AD7233C240400201C0000204C04002056
:100670002000002000B50348FFF7A4FE0248FFF762
:10068000A1FE00BD240400204C0400202DE9F05FF1
:1006900006460F4690469946DDE90AAB3B2000F03E
:1006A00067F804463C2000F063F8054645EA04205C
:1006B00000B230803D2000F05BF804463E2000F0A0
:1006C00057F8054645EA042000B238803F2000F084
:1006D0004FF80446402000F04BF8054645EA042058
:1006E00000B2A8F80000432000F042F8044644207D
:1006F00000F03EF8054645EA042000B2A9F80000E3
:10070000452000F035F80446462000F031F8054653
:1007100045EA042000B2AAF80000472000F028F8BB
:100720000446482000F024F8054645EA042000B2BB
:10073000ABF80000BDE8F09F10B500F051F80121C2
:100740006B2000F034F800216C2000F030F8092113
:10075000192000F02CF806211A2000F028F81821A2
:100760001B2000F024F818211C2000F020F810BDF8
:1007700070B5044600F0A2F8D02000F08AF800F02E
:1007800053F8204600F085F800F04EF800F096F897
:10079000D12000F07EF800F047F800F054F805464C
:1007A000012000F06AF800F097F8284670BD70B597
:1007B00005460C4600F082F8D02000F06AF800F000
:1007C00033F8284600F065F800F02EF8204600F0D7
:1007D00060F800F029F800F07FF870BD00BFFEE778
:1007E00008B50121102000F0F3FA14208DF8030061
:1007F0003020ADF8000003208DF80200694604485F
:10080000FFF742FD30210248FFF7D2FD08BD00008E
:100810000010014010B520210248FFF7C0FD04463A
:10082000204610BD0010014010B5012000F06AF80C
:10083000012000F05DF8FFF7EDFF0446002000F016
:1008400057F8204610BD70B50025012000F05AF879
:1008500000240EE0012000F04BF8FFF7DBFF012839
:1008600002D1802020410543002000F041F8601CA7
:10087000C4B2082CEEDB284670BD10B504462046F5
:1008800000F040F8012000F033F8002000F030F8CC
:1008900010BD70B5054600240DE08021214101EA1C
:1008A000050000F02FF8012000F022F8002000F0F1
:1008B0001FF8601CC4B2082CEFDB70BD10B501201E
:1008C00000F020F8012000F013F8002000F01AF8E2
:1008D000002000F00DF810BD10B5002000F012F857
:1008E000012000F005F8012000F00CF810BD000018
:1008F00010B50446224610210148FFF75BFD10BDEC
:100900000010014010B50446224620210148FFF79F
:1009100051FD10BD001001407047000000200CE0A8
:10092000002106E00022064B03EBC0135A544A1C78
:10093000D1B28029F6DB421CD0B20828F0DB704728
:10094000240000202DE9F04304460D4616461F46BC
:10095000284638E0224631E0002A2DDB7F2A2BDCB6
:10096000002829DB3F2827DC4FEAE07C00EB5C7C99
:100970004FEAEC0CDFF8588008EBCC1C1CF802C0E6
:1009800003464FEAE07800EB58784FEAE808A0EB1E
:10099000C8094FF0010808FA09F82CEA080C0146CA
:1009A0004FEAE07800EB58784FEAE808DFF820904B
:1009B00009EBC81808F802C0511C0AB2A1199142EB
:1009C000CADC411C08B2E9198142C3DCBDE8F083EE
:1009D0002400002038B5002406E0002500E06D1C4E
:1009E000B5F57A7FFBD3641CB4F57A7FF5D301218A
:1009F000082000F0EDF914208DF8030003208DF895
:100A000002000120ADF8000069460848FFF73CFCF1
:100A10000220ADF8000069460448FFF735FC0120CC
:100A200000F09AF9012000F0A1F938BD000C014056
:100A300070B50546002411E080212141294009B10B
:100A4000012100E00021084600F090F9012000F0AB
:100A500083F9002000F080F9601CC4B2082CEBDBA5
:100A6000012000F079F9002000F076F970BD10B592
:100A7000012000F07BF9012000F06EF9002000F069
:100A800075F9002000F068F910BD10B5002000F0E5
:100A90006DF9012000F060F9012000F067F910BD48
:100AA00010B5FFF797FFAE2000F06AF9D52000F0EF
:100AB00067F9802000F064F9A82000F061F93F2078
:100AC00000F05EF9D32000F05BF9002000F058F947
:100AD000402000F055F9A12000F052F9C82000F0A4
:100AE0004FF9DA2000F04CF9122000F049F981208A
:100AF00000F046F9CF2000F043F9D92000F040F98A
:100B0000F12000F03DF9DB2000F03AF9302000F050
:100B100037F9A42000F034F9A62000F031F98D2037
:100B200000F02EF9142000F02BF9AF2000F028F986
:100B3000FFF7F4FE00F0FCF810BD10B502460120EE
:100B400000E050430B00A1F10101FAD110BD70B5D6
:100B500005460C4645F0B00000F012F9102141EABC
:100B6000141000F00DF904F00F0000F009F970BD49
:100B7000F8B506460F4614461D46082D0CD1A4F1C3
:100B800020000E4901EB0010102308223946009086
:100B9000304600F017F80FE0062D0DD1A4F120002B
:100BA00000EB4000064901EB4000082306223946CD
:100BB0000090304600F006F8F8BD0000A21C0008C6
:100BC000922200082DE9FF4F80460E469146DDF83F
:100BD00034B0002500244A4631464046039BFFF7C7
:100BE000B1FE00BF5EE0002558E008EB05000028DC
:100BF00052DB08EB05007F284EDC3046F11706EB90
:100C00005171C9100FB2F11706EB5171C910A6EB63
:100C1000C10A002E05DA781E07B20AF108000FFAA1
:100C200080FA3819002817DB3819072814DC38191E
:100C3000224901EBC01008EB0501405C04FB09519F
:100C40001BF8011001FA0AF1084339191B4A02EB9B
:100C5000C11108EB050288543819401C00281BDB21
:100C60003819401C072817DC3819401C134901EBC0
:100C7000C01008EB0501405C04FB09511BF8011092
:100C8000CAF10802114108433919491C0B4A02EB09
:100C9000C11108EB05028854681CC5B24D45A4DBA0
:100CA000601CC4B20399481EC11700EB51710122A8
:100CB00002EBE101A14296DCBDE8FF8F2400002099
:100CC0002DE9F04F80468A4615461E46DDF82490F1
:100CD000002D07DB4B462B2251464046FFF748FFCD
:100CE0002F4606E04B462D2251464046FFF740FF77
:100CF0006F42002418E0301B411E0A20FFF71DFF41
:100D0000B7FBF0F00A21B0FBF1F201FB120000F199
:100D1000300B611C01FB098108B24B465A46514613
:100D2000FFF726FF601CC4B2B442E4DBBDE8F08FDD
:100D300010B500240BE000212046FFF708FF05490D
:100D400001EBC410802100F02BF8601CC4B2082C09
:100D5000F1DB10BD2400002010B50446224601211D
:100D60000148FFF727FB10BD000C014010B50446F9
:100D7000224602210148FFF71DFB10BD000C014077
:100D800010B50446FFF773FE7820FFF751FE0020F0
:100D9000FFF74EFE2046FFF74BFEFFF776FE10BD35
:100DA00070B505460E46FFF762FE7820FFF740FE5D
:100DB0004020FFF73DFE002404E0285DFFF738FEE9
:100DC000601CC4B2B442F8DBFFF75FFE70BD704731
:100DD00029B1064A92690243044B9A6104E0034A2E
:100DE00092698243014B9A617047000000100240F3
:100DF000704710B500F002F810BD00000CB50020DF
:100E0000019000903348006840F480303149086018
:100E100000BF3048006800F4003000900198401C8A
:100E20000190009818B90198B0F5A06FF1D1294848
:100E3000006800F4003010B10120009001E00020B3
:100E400000900098012843D12348006840F010002A
:100E5000214908600846006820F003000860084641
:100E6000006840F0020008601A484068194948606C
:100E70000846406848600846406840F48060486022
:100E80000846406820F47C1048600846406840F4FA
:100E9000E81048600846006840F08070086000BFB5
:100EA0000C48006800F000700028F9D0094840683C
:100EB00020F00300074948600846406840F00200FF
:100EC000486000BF0348406800F00C000828F9D1D2
:100ED0000CBD0000001002400020024070470000DE
:100EE00010B51348006840F0010011490860084639
:100EF0004068104908400E494860084600680E499D
:100F000008400B4908600846006820F4802008600B
:100F10000846406820F4FE0048604FF41F008860D7
:100F2000FFF767FF4FF000600449086010BD000044
:100F3000001002400000FFF8FFFFF6FE08ED00E0A1
:100F400000BFFEE74100080218BF04200A0E18BFC8
:100F500040F001004FF07F4232EA010108BF40F04B
:100F60000200012808BF0520704700F081BB6FF028
:100F70005E01080700F057BE2DE9F0474FF06842C8
:100F800002EB40030C460546B3F1654F3CBF02EB54
:100F90004102B2F1654F7CD2C0F3C753C1F3C752CF
:100FA0009A1A1B2A06DD10F0004F14BF76487748C6
:100FB000BDE8F08712F11A0F17DA11F0004F06D0D2
:100FC00010F0004F0CBF72487248BDE8F087214610
:100FD000284600F0B5FB0446FFF7B4FF042808BF1D
:100FE000FFF7C5FF2046BDE8F0874200B2EB410F96
:100FF00025D910F0004F19BF674F684E684F694EF2
:10100000224685F0004415460A4680F0004110460D
:101010000A1A5200B2F1807F40D248406249DFF89C
:101020008CA110F0004F18D04FF03F48384600F028
:1010300053FD07465146304600F04EFD17E011F0D3
:10104000004F04BF00263746E2D010F0004F19BF12
:10105000574F584E584F594EDAE74FF07C583846A4
:1010600000F006FB07465146304600F001FB0646FD
:101070004146284600F05AFC214600F0F9FA824623
:101080002146404600F052FC294600F01BFD514627
:1010900000E037E000F054FB044604E02146284617
:1010A00000F04EFB0446014600F040FC80464449F7
:1010B00000F03CFC434900F0DBFA414600F036FC0E
:1010C000414900F0D5FA414600F030FC3F4900F0BC
:1010D000CFFA414600F02AFC3D4900F0C9FA054626
:1010E0004146204600F022FC294600F01FFC314614
:1010F00000F0BEFA214600F0BBFA3946BDE8F047E1
:1011000000F0B6BA4FF07F42B2EB400F28BFB2EB0F
:10111000410F03D2BDE8F047FFF727BF40EA0103C4
:101120005B0008BF44F0FF410AD0B2EB400F08BF9C
:10113000B2EB410F06D125F0804024F080410546F6
:101140000C4629E7B2EB400F12BF5FEA410245F0BF
:10115000FF4004F000413FF41FAF4A0092EA400311
:101160003FF51AAF002AACBF4FF09F464FF03E56F6
:10117000314600F0DBFB05463146204600F0D6FB49
:1011800004462846214607E7DB0FC9BFDB0FC93FEE
:10119000DB0F4940DB0F49C00000C9BF22AAFDB9DF
:1011A0000000C93F22AAFD390060ED3EC30ACE37D8
:1011B000000049C022AA7DBA0000494022AA7D3A17
:1011C0002DAD65BD8FB8D53D0FB511BE61C84C3E84
:1011D000A8AAAABE08B5FFF763FCFFF7ADFAFFF7B0
:1011E00049FA1DE0FFF7A0F90E48006800F06AFB1D
:1011F0000446082004232246002100900846FFF7F9
:101200005FFD0948006800F05DFB044608200423E8
:101210002246202100900020FFF752FDFFF788FDB5
:10122000E0E700001C0000202000002021F0004228
:10123000A2F16052B2F5801F01F0004328BFD2F145
:101240007F6C0BD95FEA001C43EAC20242EB50708C
:1012500018BF704728BF20F001007047B2F5801F0B
:10126000BCBF184670474FEA410C1CF5001F02D264
:10127000084600F022BC70B500F079F90000008942
:10128000FFF7F6BF4FF00040A0F580007047000068
:101290002DE9C04130B4DFF8A0C23CEA111418BFF8
:1012A0003CEA131400F0EC8081EA03051CEA1114F7
:1012B00044EAD57418BF1CEA131500F0C780A4EBEC
:1012C00005044FF0004545EAC12145EAC32341EA40
:1012D000505143EA525304F17F74994204F50034AB
:1012E0004FEAC0204FEAC22208BF904200F09C8023
:1012F0004FEA13650FF24016765D4FEA134506FB81
:1013000005F7C7F1807706FB07F74FEAD737A7FB4A
:1013100003687642C8F58038A7FB06CE38BFA8F12F
:10132000010807FB08E64FF0000EA6FB028CE6FB67
:1013300003CEDCF1000CCEF1004E38BFAEF1010E51
:10134000A6FB0C584FF000074FF00005E6FB0E8798
:10135000A1FB08C6A0FB07CE16EB0E0645F1000563
:10136000E1FB076515F1E04E7EBFA4F580345FEA2E
:1013700046066D4116F1800745F100054FEA172733
:101380004FEA066647EA0567A6F1DE46B6F1805FDA
:101390004FEA15251FD9384624F0010C05EBC4711E
:1013A000BCF1FE6F01EB0C1102D8F0BCBDE800816E
:1013B00024425CBF01F5801E9EEAC47F02D4F0BCCB
:1013C000BDE80081244238D4F0BCA1F1C041BDE8A1
:1013D000004100F01AB94FEAD22242EA43524FEAE2
:1013E000D323A7FB02864FEAD02040EA415007FBF7
:1013F00003661EEA0E0F4FEAD12105FB026658BFB5
:10140000A6EB0056B6EB00564FEA520E4EEAC37EEC
:1014100018EB0E0E56EB530EBDD518EB02085E41CD
:101420007F1C55F10005B6E74FF480154FF000071B
:101430004FF000064FF00008ADE7F0BC4FF00000A1
:1014400001F1C04101F00041BDE8008111EA0C1F2B
:101450000CEA131500D00CE013EA0C1F00F02580F5
:101460004FF00000F0BC81EA030101F00041BDE84B
:101470000081F0BCBDE8004181EA030100F0C5B87D
:10148000F0BCBDE8004170B500F071F8097EFC3E8B
:1014900000F007B881EA03014FF0000001F00041BD
:1014A000704781EA030100F0B0B8F0BCBDE800412C
:1014B0004FF0000021497047FFFDFBF9F7F5F4F20A
:1014C000F0EEEDEBE9E8E6E4E3E1E0DEDDDBDAD8DF
:1014D000D7D5D4D3D1D0CFCDCCCBCAC8C7C6C5C43D
:1014E000C2C1C0BFBEBDBCBBBAB9B8B7B6B5B4B354
:1014F000B2B1B0AFAEADACABAAA9A8A8A7A6A5A43F
:10150000A3A3A2A1A09F9F9E9D9C9C9B9A99999802
:101510009797969595949393929191908F8F8E8EA5
:101520008D8C8C8B8B8A8989888887878685858432
:1015300084838382828181800000FF070000F87F1E
:1015400010F0004248BF4042B0FA80F310FA03F1B5
:101550000AD0C3F11D0303F580634FEA415002EB4B
:10156000035202EBD12170474FF0000070470EF19B
:10157000020E2EF0030E5EF8046B364205D4012AEB
:1015800043EB030515F5001F12D8012841EB010CB0
:101590001CF5001F0CD80ED14FEAD17C15F5001FA9
:1015A0000CEB4C0C0CF1020C08BF4CEBD37C04E0B0
:1015B0004FF0080C01E04FEAD37C0CEB4C0526FA07
:1015C00005F606F00706B6F1040C06D20EEB860C03
:1015D000BDE870404CF0010C6047DFE80CF0090BEF
:1015E00002024FF000414FF00000A1F5002170BD54
:1015F00019461046012851EB010418BFD4F5001418
:1016000084BF002001F0004170BD0808A0F5001162
:101610004FEA31017047000043004FEAD30C4FEA14
:101620003C0C43401FBF40070CF1605113F0FE4FCC
:1016300070471CF0006F03D100200CF00041704790
:101640000CF0004343EA507010B540EACC0000F0C3
:10165000EEF900BF000000924FEA0001FFF7D5BF8E
:101660004FF000414FF00000A1F50021704700004D
:1016700090EA010F48BF81F0004100F13482421A24
:101680003CBF801A89184FEAD0524FF07F4C1CEAB9
:10169000410FA2EBD15318BF9CEA026F00F03B80D0
:1016A0004FF0004C4CEA00204CEA012121FA03FCE7
:1016B00010EB0C0C1ED202F1FF325FEA1C2040EB53
:1016C000C25038BF70471CF07F0F4FEA400C18BF64
:1016D000BCF17F4F38BF7047C3F12003994008BF6A
:1016E00020F00100BCF17F4F38BF7047A0F1C0402F
:1016F00000F0E3B94FEA3C00000A40EBC25028BFBB
:101700001CF0FF0F4FEA400CE6D018BFBCF17F4F32
:1017100038BF7047EAE79CEA026F05D010EA5C0F19
:1017200008BF00F00040704710B500F080F900BF1E
:1017300064FBBE3E014800F044BA00BF0000C07F19
:101740004FF47F0C1CEAD0121EBF1CEAD11392EAA0
:101750000C0F93EA0C0F00F0858090EA010F48BF50
:1017600042F4807240F4000C41F400002CF07F4100
:1017700020F07F4000B58142A2EB03020FF2081C6B
:10178000ACEB504EC0F100009EF800E04FEA4E0E68
:1017900000FB0EFC38BF49004FEA2C1C02F5FA0290
:1017A0000CFB0EF34FEACE1E4FEA112C4FEAC1217B
:1017B0000EEB635E42EB22420EFB0CFC4FEA1C5325
:1017C00000FB03114FEA112C4FEA01310EFB0CFC18
:1017D0004FEADC4C00FB0C11C14228BF09184CEB4E
:1017E00003335DF804EB10EB410143EBC250B2F55B
:1017F0007C0F38BF704729D512F0F00F1CBF00F1E5
:10180000C04000F000407047008182838485868755
:1018100088898B8C8D8E8F919293959697999A9CAF
:101820009D9FA0A2A3A5A7A8AAACAEB0B2B3B5B71E
:10183000B9BCBEC0C2C5C7C9CCCED1D4D7D9DCDFF4
:10184000E2E6E9ECF0F3F7FAFE0000004FEA400CA4
:101850000CF1807CBCF17E4F28BF7047B0F1C040D6
:1018600000F02BB990EA010F0CEAD11348BF42F403
:101870008072624538BF634507D213F47F0F16D0DC
:1018800080EA010000F00040704710B500F0CFF88A
:10189000097EFC3E00F005B880EA010000F000403F
:1018A000704780EA010000F0004000F006B912F431
:1018B0007F0F04BF0248704780EA010000F0FDB8C6
:1018C0000000C07F41000B0ED3F19E0208D950F4F6
:1018D00000034FEA032323FA02F048BF4042704757
:1018E00010B500F0A4F800BF499224800020704792
:1018F0006FF0004282EA20007047000010F00041C3
:1019000048BF4042B0FA80F310FA03F2C3F19D03DE
:101910000BD051EAC35101EB1220530638BF704778
:1019200000F1010008BF20F0010070474FF47F0C68
:101930001CEAD0121EBF1CEAD11392EA0C0F93EAE4
:101940000C0F00F0478090EA010F48BF42F480720C
:101950004FF0004C4CEA00204CEA012102EB03025C
:10196000A0FB0113A2F50002002918BF43F00103F8
:101970005B0028BF4FEA330342EB22425FEA132C9D
:101980004CEBC2502EBFBCEB436FB2F57C0F7047DF
:101990004FEA036CBCF1004F08BF20F00100B2F524
:1019A0007C0F38BF70470BD582F0FF0212F5803FE5
:1019B000C8BF704700F1C040D8BF00F0004070477A
:1019C00000F5000C5FEA4C0C48BF7047B0F1C04016
:1019D00000F073B890EA010F0CEAD11348BF42F44B
:1019E0008072624538BF634504D280EA010000F08E
:1019F0000040704710B500F01AF800BF8900013EA2
:101A000000F007B800F009B85FEA410C5FEA1C6C0F
:101A100008D080EA010000F050B85FEA400C5FEAAD
:101A20001C6CF6D14FF00040A0F5800070470EF11D
:101A3000020E2EF0030E5EF8044B244204D44FEA4B
:101A40004102B2F17F4F11D84FEA4003B3F17F4F0B
:101A50000CD80ED14FEAD07CB2F17F4F0CEB4C0C7E
:101A60000CF1020C08BF4CEBD17C04E04FF0080CE9
:101A700001E04FEAD17C0CEB4C0324FA03F404F0B0
:101A80000704B4F1040C06D20EEB840CBDE8104040
:101A90004CF0010C6047DFE80CF0070802024FF041
:101AA0000040A0F5800010BD0846420018BFD2F1EA
:101AB000807288BF00F0004010BDFF2141EAD05085
:101AC000C005704780F0004090EA010F7FF5D7AD68
:101AD00081F0004100F007B890EA010F48BF81F0A3
:101AE00000413FF5CCAD421A04D882F00042A0EB91
:101AF000020011444FEAD0524FF07F4C1CEA410FD4
:101B0000A2EBD15318BF9CEA026F4AD04FF0004CB1
:101B10004CEA00204CEA012121FA03FCB0EB0C0C4A
:101B20000FD412F0FE0F36D05FEA4C001DD5001224
:101B300040EBC25038BF70471CF03F0F18BF7047D2
:101B40000BE0A2F101025FEA1C2040EBC25038BF5B
:101B500070471CF07F0F18BF7047C3F120039940F6
:101B600014BF401E20F00100704780084FEA122386
:101B700008BF7047B0FA80FCA2EB0C02CCF1280C35
:101B800060FA0CF093EA122F04BF00EBC2507047CA
:101B90004FEAC3707047130A5FEADC1008BF704752
:101BA000F6E79CEA026F04D010EA5C0F08BF002041
:101BB000704710B5FFF73BFF40DFF63E81F0004075
:101BC00070470CF00F03092B08BF082000F051806C
:101BD0000A2B0BD0082B18BF704708BF1CF0400F12
:101BE0000AD04FF000004FF0000170471CF0400F8A
:101BF00018BF4FF0004070471CF0100F08D020F0C5
:101C0000704300F07F4242EAD3014FEA43707047CD
:101C100000F0604021F07F4242EA000201F07F4084
:101C200040EA727070474FF0FF0212EAD0521CBFB8
:101C300092F0FF038B42C2BFD14200EBC15070470C
:101C4000002A0AD0002B0BD0002900F00040A4BFCE
:101C500040F0FE4040F40000704700F00040704744
:101C600043024FF00B0C18BF4CF0806C7FF462AD58
:101C700070471CF4801F11D01CF4E02F03D06FEAD2
:101C8000CC31490070474FF04050EFF3008222F012
:101C9000704242EA000282F3008870474FF0000071
:101CA000704700000000000000000000000000007D
:101CB0000000000000F800000000000000333000C9
:101CC000000000160E00160E0000000000000000CC
:101CD000000040C07840C0784000043F04043F0446
:101CE0000400007088FC08300000001820FF211E4E
:101CF0000000F008F000E018000000211C031E2185
:101D00001E0000F00888700000001E2123241927FF
:101D10002110000000160E0000000000000000006E
:101D20000000000000E01804020000000007182076
:101D3000400000020418E0000000004020180700E6
:101D40000000404080F0804040000202010F01028C
:101D50000200000000F0000000000101011F01016D
:101D60000100000000000000000000B07000000052
:101D7000000000000000000000000001010101015E
:101D800001010000000000000000003030000000F1
:101D900000000000000080601804006018060100C8
:101DA000000000E010080810E000000F10202010D4
:101DB0000F00001010F8000000000020203F20203D
:101DC00000000070080808887000003028242221D4
:101DD000300000300888884830000018202020118A
:101DE0000E000000C02010F8000000070424243F6B
:101DF000240000F808888808080000192120201114
:101E00000E0000E0108888180000000F112020113B
:101E10000E0000380808C83808000000003F000025
:101E200000000070880808887000001C2221212210
:101E30001C0000E010080810E00000003122221110
:101E40000F00000000C0C0000000000000303000A3
:101E50000000000000C0C0000000000080B0700062
:101E6000000000008040201008000001020408105B
:101E7000200040404040404040000404040404046A
:101E80000400000810204080000000201008040218
:101E90000100007048080808F0000000003036011A
:101EA0000000C030C828E810E000071827242314D9
:101EB0000B000000C038E0000000203C2302022795
:101EC000382008F8888888700000203F20202011E2
:101ED0000E00C0300808080838000718202020101D
:101EE000080008F808080810E000203F2020201013
:101EF0000F0008F88888E8081000203F20202320E1
:101F0000180008F88888E8081000203F2000030027
:101F10000000C03008080838000007182020221EE2
:101F2000020008F808000008F808203F21010121FC
:101F30003F20000808F8080800000020203F20206B
:101F4000000000000808F8080800C08080807F00BA
:101F5000000008F888C028180800203F2001263813
:101F6000200008F8080000000000203F202020206A
:101F7000300008F8F800F8F80800203F003F003F64
:101F8000200008F830C00008F808203F200007189B
:101F90003F00E01008080810E0000F10202020107B
:101FA0000F0008F808080808F000203F210101018F
:101FB0000000E01008080810E0000F182424385032
:101FC0004F0008F8888888887000203F2000030CA4
:101FD00030200070880808083800003820212122AD
:101FE0001C00180808F8080818000000203F20000E
:101FF000000008F808000008F808001F2020202032
:102000001F000878880000C83808000007380E0153
:102010000000F80800F80008F800033C0700073C3F
:102020000300081868808068180820302C03032CEF
:1020300030200838C800C83808000000203F2000C1
:10204000000010080808C838080020382621202081
:102050001800000000FE020202000000007F404065
:102060004000000C30C000000000000000010638F5
:10207000C00000020202FE000000004040407F005D
:1020800000000020100804081020000000000000DC
:102090000000000000000000000080808080808040
:1020A0008080000204080000000000000000000022
:1020B000000000008080808000000019242222227D
:1020C0003F2008F8008080000000003F1120201110
:1020D0000E000000008080800000000E11202020F3
:1020E0001100000000808088F800000E11202010F0
:1020F0003F200000808080800000001F22222222DA
:102100001300008080F0888888180020203F20205D
:1021100000000000808080808000006B9494949385
:10212000600008F8008080800000203F210000202F
:102130003F2000809898000000000020203F2020D1
:102140000000000000809898000000C08080807F20
:10215000000008F8000080808000203F24022D301D
:102160002000000808F8000000000020203F202088
:1021700000008080808080808000203F20003F2001
:10218000003F008080008080000000203F21002070
:102190003F200000808080800000001F2020202041
:1021A0001F00808000808000000080FFA12020119F
:1021B0000E000000008080808000000E112020A012
:1021C000FF80808080008080800020203F212000D0
:1021D00001000000808080808000003324242424BB
:1021E0001900008080E0808000000000001F202097
:1021F00000008080000000808000001F2020201050
:102200003F20808080000080808000010E30080622
:10221000010080800080008080800F300C030C3033
:102220000F0000808000808080000020312E0E3161
:102230002000808080000080808080818E70180661
:10224000010000808080808080000021302C2221CD
:10225000300000000000807C020200000000003F0F
:10226000404000000000FF00000000000000FF00F0
:1022700000000002027C800000000040403F00009F
:10228000000000804040800000800000000000014D
:1022900001000000000000000000002F000000000E
:1022A0000700070000147F147F1400242A7F2A12DD
:1022B00000231308646200364955225000000007CD
:1022C000000000001C224100000041221C000014FC
:1022D000083E08140008083E0808000000A060003E
:1022E00000080808080800006060000000201008CE
:1022F0000402003E5149453E0000427F400000423A
:1023000061514946002141454B31001814127F109C
:10231000002745454539003C4A49493000017109CB
:10232000050300364949493600064949291E00007F
:102330003636000000005636000000081422410026
:102340000014141414140000412214080002015156
:102350000906003E4955592E007C1211127C007F5F
:1023600049494936003E41414122007F4141221CFA
:10237000007F49494941007F09090901003E41495F
:10238000497A007F0808087F0000417F4100002053
:1023900040413F01007F08142241007F40404040FF
:1023A000007F020C027F007F0408107F003E414145
:1023B000413E007F09090906003E4151215E007F30
:1023C000091929460046494949310001017F0101A7
:1023D000003F4040403F001F2040201F003F40384A
:1023E000403F006314081463000708700807006189
:1023F0005149454300007F4141000002040810207C
:10240000000041417F0000040201020400404040FE
:102410004040000001020400002054545478007F22
:102420004844443800384444442000384444487FF9
:1024300000385454541800087E0901020018A4A45E
:10244000A47C007F080404780000447D4000004024
:1024500080847D00007F102844000000417F400000
:10246000007C04180478007C080404780038444494
:10247000443800FC242424180018242418FC007C70
:102480000804040800485454542000043F444020E9
:10249000003C4040207C001C2040201C003C403080
:1024A000403C004428102844001CA0A0A07C00440C
:1024B00064544C440000087F41000000007F00008D
:1024C0000000417F0800000804081008EFBC8C00E1
:1024D00000000000000000000000000000000000FC
:1024E000000058380000000000000000000000005C
:1024F000E3808200000000000000000000000000F7
:102500000000000000001824241800000000000053
:1025100000000000E4BDA000008060F80740201823
:102520000F08C80808281800010000FF00100C035D
:1025300040807F0001061800E5A5BD001010F01FC7
:1025400010F000808282E2928A8680004022150884
:102550001661000040807F0000000000E4B8960093
:10256000202020FE2020FF202020FF2020202000EF
:102570000000007F40404744444447404040000042
:10258000E7958C00000000FE929292FE929292FEDD
:102590000000000008080484621E010001FE02041D
:1025A00004080800E5A4A70020202020202020FF08
:1025B000202020202020200080804020100C0300BC
:1025C000030C102040808000E5AEB600102C2424BF
:1025D000A4A465A624242424A4340C004049492939
:1025E000241452897F040A111020200000000000EA
:1025F000FF0101013109090909897101010101FF87
:10260000FF8080808080809681808080808080FFB5
:10261000FF01818181FD8991A1C1FD81818101FF3E
:10262000FF808080809F888482819F80808080FF5F
:102630005026000800000020240000006C01000863
:102640007426000824000020B40A00008801000855
:10265000000000000000000000000000000000007A
:10266000000000000000000000000000000000006A
:042670000000000066
:0400000508000131BD
:00000001FF
